{
  "_format": "hh-sol-artifact-1",
  "contractName": "StrataForgeMerkleDistributor",
  "sourceName": "contracts/StrataForgeMerkleDistributor.sol",
  "abi": [
    {
      "inputs": [
        {
          "internalType": "address",
          "name": "token_",
          "type": "address"
        },
        {
          "internalType": "bytes32",
          "name": "merkleRoot_",
          "type": "bytes32"
        },
        {
          "internalType": "uint8",
          "name": "tokenType_",
          "type": "uint8"
        },
        {
          "internalType": "uint256",
          "name": "dropAmount_",
          "type": "uint256"
        },
        {
          "internalType": "uint256[]",
          "name": "tokenIds_",
          "type": "uint256[]"
        },
        {
          "internalType": "uint256",
          "name": "tokenId_",
          "type": "uint256"
        },
        {
          "internalType": "uint32",
          "name": "totalRecipients_",
          "type": "uint32"
        },
        {
          "internalType": "uint32",
          "name": "startTime_",
          "type": "uint32"
        }
      ],
      "stateMutability": "nonpayable",
      "type": "constructor"
    },
    {
      "inputs": [],
      "name": "AirdropNotStarted",
      "type": "error"
    },
    {
      "inputs": [],
      "name": "AlreadyClaimed",
      "type": "error"
    },
    {
      "inputs": [],
      "name": "InvalidProof",
      "type": "error"
    },
    {
      "inputs": [],
      "name": "TransferFailed",
      "type": "error"
    },
    {
      "anonymous": false,
      "inputs": [
        {
          "indexed": true,
          "internalType": "address",
          "name": "recipient",
          "type": "address"
        },
        {
          "indexed": false,
          "internalType": "uint256",
          "name": "amount",
          "type": "uint256"
        },
        {
          "indexed": false,
          "internalType": "uint256",
          "name": "tokenId",
          "type": "uint256"
        }
      ],
      "name": "Claimed",
      "type": "event"
    },
    {
      "inputs": [
        {
          "internalType": "bytes32[]",
          "name": "proof",
          "type": "bytes32[]"
        }
      ],
      "name": "claim",
      "outputs": [],
      "stateMutability": "nonpayable",
      "type": "function"
    },
    {
      "inputs": [],
      "name": "claimedCount",
      "outputs": [
        {
          "internalType": "uint32",
          "name": "",
          "type": "uint32"
        }
      ],
      "stateMutability": "view",
      "type": "function"
    },
    {
      "inputs": [],
      "name": "dropAmount",
      "outputs": [
        {
          "internalType": "uint256",
          "name": "",
          "type": "uint256"
        }
      ],
      "stateMutability": "view",
      "type": "function"
    },
    {
      "inputs": [],
      "name": "getRemainingTokens",
      "outputs": [
        {
          "internalType": "uint256",
          "name": "",
          "type": "uint256"
        }
      ],
      "stateMutability": "view",
      "type": "function"
    },
    {
      "inputs": [],
      "name": "getTokenIds",
      "outputs": [
        {
          "internalType": "uint256[]",
          "name": "",
          "type": "uint256[]"
        }
      ],
      "stateMutability": "view",
      "type": "function"
    },
    {
      "inputs": [
        {
          "internalType": "address",
          "name": "",
          "type": "address"
        }
      ],
      "name": "hasClaimed",
      "outputs": [
        {
          "internalType": "bool",
          "name": "",
          "type": "bool"
        }
      ],
      "stateMutability": "view",
      "type": "function"
    },
    {
      "inputs": [],
      "name": "merkleRoot",
      "outputs": [
        {
          "internalType": "bytes32",
          "name": "",
          "type": "bytes32"
        }
      ],
      "stateMutability": "view",
      "type": "function"
    },
    {
      "inputs": [
        {
          "internalType": "address",
          "name": "",
          "type": "address"
        },
        {
          "internalType": "address",
          "name": "",
          "type": "address"
        },
        {
          "internalType": "uint256[]",
          "name": "",
          "type": "uint256[]"
        },
        {
          "internalType": "uint256[]",
          "name": "",
          "type": "uint256[]"
        },
        {
          "internalType": "bytes",
          "name": "",
          "type": "bytes"
        }
      ],
      "name": "onERC1155BatchReceived",
      "outputs": [
        {
          "internalType": "bytes4",
          "name": "",
          "type": "bytes4"
        }
      ],
      "stateMutability": "pure",
      "type": "function"
    },
    {
      "inputs": [
        {
          "internalType": "address",
          "name": "",
          "type": "address"
        },
        {
          "internalType": "address",
          "name": "",
          "type": "address"
        },
        {
          "internalType": "uint256",
          "name": "",
          "type": "uint256"
        },
        {
          "internalType": "uint256",
          "name": "",
          "type": "uint256"
        },
        {
          "internalType": "bytes",
          "name": "",
          "type": "bytes"
        }
      ],
      "name": "onERC1155Received",
      "outputs": [
        {
          "internalType": "bytes4",
          "name": "",
          "type": "bytes4"
        }
      ],
      "stateMutability": "pure",
      "type": "function"
    },
    {
      "inputs": [],
      "name": "startTime",
      "outputs": [
        {
          "internalType": "uint32",
          "name": "",
          "type": "uint32"
        }
      ],
      "stateMutability": "view",
      "type": "function"
    },
    {
      "inputs": [
        {
          "internalType": "bytes4",
          "name": "interfaceId",
          "type": "bytes4"
        }
      ],
      "name": "supportsInterface",
      "outputs": [
        {
          "internalType": "bool",
          "name": "",
          "type": "bool"
        }
      ],
      "stateMutability": "pure",
      "type": "function"
    },
    {
      "inputs": [],
      "name": "token",
      "outputs": [
        {
          "internalType": "address",
          "name": "",
          "type": "address"
        }
      ],
      "stateMutability": "view",
      "type": "function"
    },
    {
      "inputs": [],
      "name": "tokenId",
      "outputs": [
        {
          "internalType": "uint256",
          "name": "",
          "type": "uint256"
        }
      ],
      "stateMutability": "view",
      "type": "function"
    },
    {
      "inputs": [],
      "name": "tokenType",
      "outputs": [
        {
          "internalType": "uint8",
          "name": "",
          "type": "uint8"
        }
      ],
      "stateMutability": "view",
      "type": "function"
    },
    {
      "inputs": [],
      "name": "totalRecipients",
      "outputs": [
        {
          "internalType": "uint32",
          "name": "",
          "type": "uint32"
        }
      ],
      "stateMutability": "view",
      "type": "function"
    }
  ],
  "bytecode": "0x61016060405234801561001157600080fd5b50604051612119380380612119833981810160405281019061003391906104c9565b600073ffffffffffffffffffffffffffffffffffffffff168873ffffffffffffffffffffffffffffffffffffffff16036100a2576040517f08c379a0000000000000000000000000000000000000000000000000000000008152600401610099906105f8565b60405180910390fd5b60008163ffffffff16116100eb576040517f08c379a00000000000000000000000000000000000000000000000000000000081526004016100e290610664565b60405180910390fd5b8773ffffffffffffffffffffffffffffffffffffffff1660a08173ffffffffffffffffffffffffffffffffffffffff168152505086608081815250508560ff1660c08160ff16815250508461010081815250508163ffffffff166101208163ffffffff16815250508063ffffffff1660e08163ffffffff168152505060018660ff160361018a5783600290805190602001906101889291906101b3565b505b60028660ff161461019c57600061019e565b825b61014081815250505050505050505050610684565b8280548282559060005260206000209081019282156101ef579160200282015b828111156101ee5782518255916020019190600101906101d3565b5b5090506101fc9190610200565b5090565b5b80821115610219576000816000905550600101610201565b5090565b6000604051905090565b600080fd5b600080fd5b600073ffffffffffffffffffffffffffffffffffffffff82169050919050565b600061025c82610231565b9050919050565b61026c81610251565b811461027757600080fd5b50565b60008151905061028981610263565b92915050565b6000819050919050565b6102a28161028f565b81146102ad57600080fd5b50565b6000815190506102bf81610299565b92915050565b600060ff82169050919050565b6102db816102c5565b81146102e657600080fd5b50565b6000815190506102f8816102d2565b92915050565b6000819050919050565b610311816102fe565b811461031c57600080fd5b50565b60008151905061032e81610308565b92915050565b600080fd5b6000601f19601f8301169050919050565b7f4e487b7100000000000000000000000000000000000000000000000000000000600052604160045260246000fd5b61038282610339565b810181811067ffffffffffffffff821117156103a1576103a061034a565b5b80604052505050565b60006103b461021d565b90506103c08282610379565b919050565b600067ffffffffffffffff8211156103e0576103df61034a565b5b602082029050602081019050919050565b600080fd5b6000610409610404846103c5565b6103aa565b9050808382526020820190506020840283018581111561042c5761042b6103f1565b5b835b818110156104555780610441888261031f565b84526020840193505060208101905061042e565b5050509392505050565b600082601f83011261047457610473610334565b5b81516104848482602086016103f6565b91505092915050565b600063ffffffff82169050919050565b6104a68161048d565b81146104b157600080fd5b50565b6000815190506104c38161049d565b92915050565b600080600080600080600080610100898b0312156104ea576104e9610227565b5b60006104f88b828c0161027a565b98505060206105098b828c016102b0565b975050604061051a8b828c016102e9565b965050606061052b8b828c0161031f565b955050608089015167ffffffffffffffff81111561054c5761054b61022c565b5b6105588b828c0161045f565b94505060a06105698b828c0161031f565b93505060c061057a8b828c016104b4565b92505060e061058b8b828c016104b4565b9150509295985092959890939650565b600082825260208201905092915050565b7f496e76616c696420746f6b656e20616464726573730000000000000000000000600082015250565b60006105e260158361059b565b91506105ed826105ac565b602082019050919050565b60006020820190508181036000830152610611816105d5565b9050919050565b7f496e76616c69642073746172742074696d650000000000000000000000000000600082015250565b600061064e60128361059b565b915061065982610618565b602082019050919050565b6000602082019050818103600083015261067d81610641565b9050919050565b60805160a05160c05160e0516101005161012051610140516119b6610763600039600081816103920152818161061701528181610b460152610c320152600081816105a30152610cb201526000818161036e015281816109320152818161099001528181610b670152610c11015260008181610476015261069c0152600081816103da0152818161049d01528181610569015281816108e401526109d00152600081816104c6015281816105db0152818161091001528181610a2201528181610b080152610cd60152600081816103b601526107c501526119b66000f3fe608060405234801561001057600080fd5b50600436106100f55760003560e01c806378e9792511610097578063c08fa1a411610066578063c08fa1a414610278578063f23a6e6114610296578063f4f8495b146102c6578063fc0c546a146102e4576100f5565b806378e97925146101f0578063af35ae271461020e578063b391c5081461022c578063bc197c8114610248576100f5565b80632eb4a7ab116100d35780632eb4a7ab1461016657806330fa738c1461018457806367f718a9146101a257806373b2e80e146101c0576100f5565b806301ffc9a7146100fa57806305748be21461012a57806317d70f7c14610148575b600080fd5b610114600480360381019061010f9190610f53565b610302565b6040516101219190610f9b565b60405180910390f35b61013261036c565b60405161013f9190610fcf565b60405180910390f35b610150610390565b60405161015d9190610fcf565b60405180910390f35b61016e6103b4565b60405161017b9190611003565b60405180910390f35b61018c6103d8565b604051610199919061103a565b60405180910390f35b6101aa6103fc565b6040516101b79190611113565b60405180910390f35b6101da60048036038101906101d59190611193565b610454565b6040516101e79190610f9b565b60405180910390f35b6101f8610474565b60405161020591906111df565b60405180910390f35b610216610498565b6040516102239190610fcf565b60405180910390f35b6102466004803603810190610241919061125f565b61069a565b005b610262600480360381019061025d9190611358565b610c6e565b60405161026f9190611443565b60405180910390f35b610280610c86565b60405161028d91906111df565b60405180910390f35b6102b060048036038101906102ab919061148a565b610c9a565b6040516102bd9190611443565b60405180910390f35b6102ce610cb0565b6040516102db91906111df565b60405180910390f35b6102ec610cd4565b6040516102f99190611533565b60405180910390f35b60007f4e2312e0000000000000000000000000000000000000000000000000000000007bffffffffffffffffffffffffffffffffffffffffffffffffffffffff1916827bffffffffffffffffffffffffffffffffffffffffffffffffffffffff1916149050919050565b7f000000000000000000000000000000000000000000000000000000000000000081565b7f000000000000000000000000000000000000000000000000000000000000000081565b7f000000000000000000000000000000000000000000000000000000000000000081565b7f000000000000000000000000000000000000000000000000000000000000000081565b6060600280548060200260200160405190810160405280929190818152602001828054801561044a57602002820191906000526020600020905b815481526020019060010190808311610436575b5050505050905090565b60016020528060005260406000206000915054906101000a900460ff1681565b7f000000000000000000000000000000000000000000000000000000000000000081565b6000807f000000000000000000000000000000000000000000000000000000000000000060ff1603610565577f000000000000000000000000000000000000000000000000000000000000000073ffffffffffffffffffffffffffffffffffffffff166370a08231306040518263ffffffff1660e01b815260040161051d9190611533565b602060405180830381865afa15801561053a573d6000803e3d6000fd5b505050506040513d601f19601f8201168201806040525081019061055e9190611563565b9050610697565b60017f000000000000000000000000000000000000000000000000000000000000000060ff16036105d95760008054906101000a900463ffffffff167f00000000000000000000000000000000000000000000000000000000000000006105cc91906115bf565b63ffffffff169050610697565b7f000000000000000000000000000000000000000000000000000000000000000073ffffffffffffffffffffffffffffffffffffffff1662fdd58e307f00000000000000000000000000000000000000000000000000000000000000006040518363ffffffff1660e01b81526004016106539291906115f7565b602060405180830381865afa158015610670573d6000803e3d6000fd5b505050506040513d601f19601f820116820180604052508101906106949190611563565b90505b90565b7f000000000000000000000000000000000000000000000000000000000000000063ffffffff164210156106fa576040517fb820fc9700000000000000000000000000000000000000000000000000000000815260040160405180910390fd5b600160003373ffffffffffffffffffffffffffffffffffffffff1673ffffffffffffffffffffffffffffffffffffffff16815260200190815260200160002060009054906101000a900460ff161561077e576040517f646cf55800000000000000000000000000000000000000000000000000000000815260040160405180910390fd5b610810828280806020026020016040519081016040528093929190818152602001838360200280828437600081840152601f19601f820116905080830192505050505050507f0000000000000000000000000000000000000000000000000000000000000000336040516020016107f59190611668565b60405160208183030381529060405280519060200120610cf8565b610846576040517f09bde33900000000000000000000000000000000000000000000000000000000815260040160405180910390fd5b60018060003373ffffffffffffffffffffffffffffffffffffffff1673ffffffffffffffffffffffffffffffffffffffff16815260200190815260200160002060006101000a81548160ff021916908315150217905550600080600081819054906101000a900463ffffffff16809291906108c090611683565b91906101000a81548163ffffffff021916908363ffffffff160217905550905060007f000000000000000000000000000000000000000000000000000000000000000060ff16036109cc576109567f0000000000000000000000000000000000000000000000000000000000000000337f0000000000000000000000000000000000000000000000000000000000000000610d0f565b3373ffffffffffffffffffffffffffffffffffffffff167f987d620f307ff6b94d58743cb7a7509f24071586a77759b77c2d4e29f75a2f9a7f000000000000000000000000000000000000000000000000000000000000000060006040516109bf9291906116f4565b60405180910390a2610c69565b60017f000000000000000000000000000000000000000000000000000000000000000060ff1603610b0657600060028263ffffffff1681548110610a1357610a1261171d565b5b906000526020600020015490507f000000000000000000000000000000000000000000000000000000000000000073ffffffffffffffffffffffffffffffffffffffff166323b872dd3033846040518463ffffffff1660e01b8152600401610a7d9392919061174c565b600060405180830381600087803b158015610a9757600080fd5b505af1158015610aab573d6000803e3d6000fd5b505050503373ffffffffffffffffffffffffffffffffffffffff167f987d620f307ff6b94d58743cb7a7509f24071586a77759b77c2d4e29f75a2f9a600183604051610af89291906117be565b60405180910390a250610c68565b7f000000000000000000000000000000000000000000000000000000000000000073ffffffffffffffffffffffffffffffffffffffff1663f242432a30337f00000000000000000000000000000000000000000000000000000000000000007f00000000000000000000000000000000000000000000000000000000000000006040518563ffffffff1660e01b8152600401610ba5949392919061181e565b600060405180830381600087803b158015610bbf57600080fd5b505af1158015610bd3573d6000803e3d6000fd5b505050503373ffffffffffffffffffffffffffffffffffffffff167f987d620f307ff6b94d58743cb7a7509f24071586a77759b77c2d4e29f75a2f9a7f00000000000000000000000000000000000000000000000000000000000000007f0000000000000000000000000000000000000000000000000000000000000000604051610c5f929190611876565b60405180910390a25b5b505050565b600063bc197c8160e01b905098975050505050505050565b60008054906101000a900463ffffffff1681565b600063f23a6e6160e01b90509695505050505050565b7f000000000000000000000000000000000000000000000000000000000000000081565b7f000000000000000000000000000000000000000000000000000000000000000081565b600082610d058584610e5f565b1490509392505050565b6000808473ffffffffffffffffffffffffffffffffffffffff1663a9059cbb60e01b8585604051602401610d449291906115f7565b604051602081830303815290604052907bffffffffffffffffffffffffffffffffffffffffffffffffffffffff19166020820180517bffffffffffffffffffffffffffffffffffffffffffffffffffffffff8381831617835250505050604051610dae9190611910565b6000604051808303816000865af19150503d8060008114610deb576040519150601f19603f3d011682016040523d82523d6000602084013e610df0565b606091505b5091509150811580610e2157506000815114158015610e20575080806020019051810190610e1e9190611953565b155b5b15610e58576040517f90b8ec1800000000000000000000000000000000000000000000000000000000815260040160405180910390fd5b5050505050565b60008082905060005b8451811015610ea457610e9582868381518110610e8857610e8761171d565b5b6020026020010151610eaf565b91508080600101915050610e68565b508091505092915050565b6000818310610ec757610ec28284610eda565b610ed2565b610ed18383610eda565b5b905092915050565b600082600052816020526040600020905092915050565b600080fd5b600080fd5b60007fffffffff0000000000000000000000000000000000000000000000000000000082169050919050565b610f3081610efb565b8114610f3b57600080fd5b50565b600081359050610f4d81610f27565b92915050565b600060208284031215610f6957610f68610ef1565b5b6000610f7784828501610f3e565b91505092915050565b60008115159050919050565b610f9581610f80565b82525050565b6000602082019050610fb06000830184610f8c565b92915050565b6000819050919050565b610fc981610fb6565b82525050565b6000602082019050610fe46000830184610fc0565b92915050565b6000819050919050565b610ffd81610fea565b82525050565b60006020820190506110186000830184610ff4565b92915050565b600060ff82169050919050565b6110348161101e565b82525050565b600060208201905061104f600083018461102b565b92915050565b600081519050919050565b600082825260208201905092915050565b6000819050602082019050919050565b61108a81610fb6565b82525050565b600061109c8383611081565b60208301905092915050565b6000602082019050919050565b60006110c082611055565b6110ca8185611060565b93506110d583611071565b8060005b838110156111065781516110ed8882611090565b97506110f8836110a8565b9250506001810190506110d9565b5085935050505092915050565b6000602082019050818103600083015261112d81846110b5565b905092915050565b600073ffffffffffffffffffffffffffffffffffffffff82169050919050565b600061116082611135565b9050919050565b61117081611155565b811461117b57600080fd5b50565b60008135905061118d81611167565b92915050565b6000602082840312156111a9576111a8610ef1565b5b60006111b78482850161117e565b91505092915050565b600063ffffffff82169050919050565b6111d9816111c0565b82525050565b60006020820190506111f460008301846111d0565b92915050565b600080fd5b600080fd5b600080fd5b60008083601f84011261121f5761121e6111fa565b5b8235905067ffffffffffffffff81111561123c5761123b6111ff565b5b60208301915083602082028301111561125857611257611204565b5b9250929050565b6000806020838503121561127657611275610ef1565b5b600083013567ffffffffffffffff81111561129457611293610ef6565b5b6112a085828601611209565b92509250509250929050565b60008083601f8401126112c2576112c16111fa565b5b8235905067ffffffffffffffff8111156112df576112de6111ff565b5b6020830191508360208202830111156112fb576112fa611204565b5b9250929050565b60008083601f840112611318576113176111fa565b5b8235905067ffffffffffffffff811115611335576113346111ff565b5b60208301915083600182028301111561135157611350611204565b5b9250929050565b60008060008060008060008060a0898b03121561137857611377610ef1565b5b60006113868b828c0161117e565b98505060206113978b828c0161117e565b975050604089013567ffffffffffffffff8111156113b8576113b7610ef6565b5b6113c48b828c016112ac565b9650965050606089013567ffffffffffffffff8111156113e7576113e6610ef6565b5b6113f38b828c016112ac565b9450945050608089013567ffffffffffffffff81111561141657611415610ef6565b5b6114228b828c01611302565b92509250509295985092959890939650565b61143d81610efb565b82525050565b60006020820190506114586000830184611434565b92915050565b61146781610fb6565b811461147257600080fd5b50565b6000813590506114848161145e565b92915050565b60008060008060008060a087890312156114a7576114a6610ef1565b5b60006114b589828a0161117e565b96505060206114c689828a0161117e565b95505060406114d789828a01611475565b94505060606114e889828a01611475565b935050608087013567ffffffffffffffff81111561150957611508610ef6565b5b61151589828a01611302565b92509250509295509295509295565b61152d81611155565b82525050565b60006020820190506115486000830184611524565b92915050565b60008151905061155d8161145e565b92915050565b60006020828403121561157957611578610ef1565b5b60006115878482850161154e565b91505092915050565b7f4e487b7100000000000000000000000000000000000000000000000000000000600052601160045260246000fd5b60006115ca826111c0565b91506115d5836111c0565b9250828203905063ffffffff8111156115f1576115f0611590565b5b92915050565b600060408201905061160c6000830185611524565b6116196020830184610fc0565b9392505050565b60008160601b9050919050565b600061163882611620565b9050919050565b600061164a8261162d565b9050919050565b61166261165d82611155565b61163f565b82525050565b60006116748284611651565b60148201915081905092915050565b600061168e826111c0565b915063ffffffff82036116a4576116a3611590565b5b600182019050919050565b6000819050919050565b6000819050919050565b60006116de6116d96116d4846116af565b6116b9565b610fb6565b9050919050565b6116ee816116c3565b82525050565b60006040820190506117096000830185610fc0565b61171660208301846116e5565b9392505050565b7f4e487b7100000000000000000000000000000000000000000000000000000000600052603260045260246000fd5b60006060820190506117616000830186611524565b61176e6020830185611524565b61177b6040830184610fc0565b949350505050565b6000819050919050565b60006117a86117a361179e84611783565b6116b9565b610fb6565b9050919050565b6117b88161178d565b82525050565b60006040820190506117d360008301856117af565b6117e06020830184610fc0565b9392505050565b600082825260208201905092915050565b50565b60006118086000836117e7565b9150611813826117f8565b600082019050919050565b600060a0820190506118336000830187611524565b6118406020830186611524565b61184d6040830185610fc0565b61185a6060830184610fc0565b818103608083015261186b816117fb565b905095945050505050565b600060408201905061188b6000830185610fc0565b6118986020830184610fc0565b9392505050565b600081519050919050565b600081905092915050565b60005b838110156118d35780820151818401526020810190506118b8565b60008484015250505050565b60006118ea8261189f565b6118f481856118aa565b93506119048185602086016118b5565b80840191505092915050565b600061191c82846118df565b915081905092915050565b61193081610f80565b811461193b57600080fd5b50565b60008151905061194d81611927565b92915050565b60006020828403121561196957611968610ef1565b5b60006119778482850161193e565b9150509291505056fea264697066735822122055b868ff12b5673ab6e0f4f61beb6cf72c02fb85f4ab6cc6dcd359b1b562768664736f6c634300081a0033",
  "linkReferences": {},
  "deployedLinkReferences": {}
}